{
    "contractName": "Proxy",
    "abi": [
        {
            "anonymous": false,
            "inputs": [
                {
                    "indexed": false,
                    "internalType": "address",
                    "name": "",
                    "type": "address"
                }
            ],
            "name": "Deploy",
            "type": "event"
        },
        {
            "inputs": [
                {
                    "internalType": "bytes",
                    "name": "_code",
                    "type": "bytes"
                }
            ],
            "name": "deploy",
            "outputs": [
                {
                    "internalType": "address",
                    "name": "addr",
                    "type": "address"
                }
            ],
            "stateMutability": "payable",
            "type": "function"
        }
    ],
    "bytecode": "608060405234801561001057600080fd5b506101f5806100206000396000f3fe60806040526004361061001d5760003560e01c806277436014610022575b600080fd5b61003561003036600461010e565b610051565b6040516001600160a01b03909116815260200160405180910390f35b600081516020830134f090506001600160a01b0381166100b75760405162461bcd60e51b815260206004820152601b60248201527f6465706c6f79206661696c6564202d2061647265737320697320300000000000604482015260640160405180910390fd5b6040516001600160a01b03821681527f55ea6c6b31543d8e2ec6a72f71a79c0f4b72ed0d4757172b043d8f4f4cd848489060200160405180910390a1919050565b634e487b7160e01b600052604160045260246000fd5b60006020828403121561012057600080fd5b813567ffffffffffffffff8082111561013857600080fd5b818401915084601f83011261014c57600080fd5b81358181111561015e5761015e6100f8565b604051601f8201601f19908116603f01168101908382118183101715610186576101866100f8565b8160405282815287602084870101111561019f57600080fd5b82602086016020830137600092810160200192909252509594505050505056fea264697066735822122024021467bc242a4e2ed783a5ca71c2c44c1c7481a980a161210de50c5605226764736f6c634300080d0033",
    "sourcePath": "/home/karolsudol/smart-contracts/src/Proxy.sol",
    "compiler": {
        "name": "solc",
        "version": "0.8.13+commit.abaa5c0e"
    },
    "functionHashes": {
        "deploy(bytes)": "00774360"
    },
    "gasEstimates": {
        "creation": {
            "codeDepositCost": "100200",
            "executionCost": "147",
            "totalCost": "100347"
        },
        "external": {
            "deploy(bytes)": "infinite"
        }
    }
}